:100000000C94DC000C94FB000C94FB000C94FB00A3
:100010000C94FB000C94FB000C94FB000C94FB0074
:100020000C94FB000C94FB000C94FB000C94FB0064
:100030000C94FB000C94FB000C94FB000C94FB0054
:100040000C94FB000C94FB000C94F2050C9420061D
:100050000C94FB000C94FB000C94FB000C94FB0034
:100060000C94FB000C94FB000C94FB000C94FB0024
:100070000C94FB000C94FB000C94B0060C94E0066E
:100080000C94FB000C94FB000C94FB005541525463
:10009000204672616D65204572726F723A2000537E
:1000A0007472696E672073746F72656420696E2064
:1000B000464C4153480A00005EBCE2613FDD83C20A
:1000C0009C7E20A3FD1F419DC3217FFCA2401E5F9B
:1000D00001E3BD3E6082DC237D9FC1421CFEA0E1A6
:1000E000BF5D0380DE3C62BEE0025CDF81633D7C7D
:1000F00022C09E1D43A1FF4618FAA427799BC58400
:10010000DA3866E5BB5907DB856739BAE406581962
:1001100047A5FB7826C49A653BD987045AB8E6A759
:10012000F91B45C6987A24F8A6441A99C7257B3A44
:100130006486D85B05E7B98CD2306EEDB3510F4EB3
:1001400010F2AC2F7193CD114FADF3702ECC92D332
:100150008D6F31B2EC0E50AFF1134DCE90722C6D0D
:1001600033D18F0C52B0EE326C8ED0530DEFB1F014
:10017000AE4C1291CF2D73CA947628ABF51749086F
:1001800056B4EA6937D58B5709EBB536688AD495EA
:10019000CB2977F4AA4816E9B7550B88D6346A2BD1
:1001A0007597C94A14F6A8742AC896154BA9F7B6CC
:1001B000E80A54D7896B350011241FBECFEFD0E178
:1001C000DEBFCDBF11E0A0E0B1E0E4E8FFE000E079
:1001D0000BBF02C007900D92A83EB107D9F712E0FD
:1001E000A8EEB1E001C01D92AC38B107E1F70E9462
:1001F00097010C94C1070C94000020E030E0A5E6C4
:10020000B0E0E22F2C938BB38BBB89B38F708F3010
:1002100061F1CB9902C083E00AC0CA9902C082E0B2
:1002200006C0C99902C081E002C0C89B80E0FF27D8
:10023000EE0FFF1FEE0FFF1FE952FE4FE80FF11DFB
:10024000E0818091E801E81739F48091E901882381
:1002500019F080E090E00895E093E80181E0809358
:10026000E9018091E901992708952F5F3F4F2430DC
:10027000310539F61092E90180E090E0089505C05B
:1002800020E000002F5F2D37E1F701972FEF8F3F20
:100290009207B1F708950E94E30260E080E00E94B7
:1002A000C90280E091E00E940C0361E080E00E94BE
:1002B000C9028CE091E00E940C0308950E94E302C1
:1002C00060E080E00E94C90288E191E00E940C0396
:1002D00061E080E00E94C9028AE291E00E940C0382
:1002E00062E080E00E94C90285E391E00E940C0375
:1002F00008958CE00E942F030E94E30260E080E0FA
:100300000E94C9028AE491E00E940C0361E080E04F
:100310000E94C9028EE591E00E940C0362E080E039
:100320000E94C90281E791E00E940C030895C8EF82
:10033000D0E1DEBFCDBF1ABA8FEF809364008FE0AB
:100340008BBB0E94790181E08093EA0187E190E014
:100350000E944606789481E891E00E948E068FE91B
:1003600090E00E949D064AE050E08E010F5F1F4F13
:10037000B80186E890E00E947C07C8010E948E06C2
:100380000E94790100E010E08CE890E00E949D0658
:100390000E94FD00892B09F446C08091EA0181305A
:1003A00021F0833009F03FC014C08091E80181330F
:1003B00031F40E945E0183E08093EA0134C08091B1
:1003C000E801823381F50E944B0184E08093EA01C9
:1003D0002AC00830110564F40F2EF9E0EF2EFF2437
:1003E000F02DE00EF11E8091E8010F5F1F4F08C055
:1003F00060E080E00E94C90288E991E00E940C035D
:1004000061E08E2D0E94C9028091E8010E94EB02FA
:1004100088EC90E00E943F0161E08E2D0E94C902AD
:100420008AE20E94EB0284E690E00E943F0185E0B0
:100430008093650063E080E00E94C902C89905C00E
:1004400087EA91E00E940C0304C08DEA91E00E94CB
:100450000C03C99905C083EB91E00E940C0304C012
:1004600089EB91E00E940C03CA9905C08FEB91E0E3
:100470000E940C0304C085EC91E00E940C03CB9910
:1004800005C08BEC91E00E940C037ECF81ED91E0E2
:100490000E940C0379CFAA9A00C0AA980895CF931E
:1004A000DF93662311F0A89A01C0A898A998A49A8E
:1004B000A59AA69AA79AAF98AE98AD98AC988823BB
:1004C0000CF4AF9AC82FDD27C6FDAE9AC5FDAD9AD4
:1004D000C4FDAC9A0E944B02AF98AE98AD98AC9810
:1004E000C3FDAF9AC2FDAE9AC1FDAD9AC0FDAC9AF4
:1004F0000E944B02AC9AAD9AAE9AAF9ADF91CF911F
:100500000895882311F0A89A01C0A898A99AA498E0
:10051000A598A698A798AA9A00C09C9B02C080E1C3
:1005200001C080E09D9980629E9980649F99806857
:10053000AA9800C0AA9A00C09C9981609D99826087
:100540009E9984609F998860AA989927089580E071
:100550000E9481028823DCF381E090E00197F1F7AB
:1005600080E00E948102992708951F93182F0E940E
:10057000A70260E0812F0E944F021F9108951F93F0
:10058000182F0E94A70261E0812F0E944F021F9145
:100590000895662321F480580E94B50208956130C1
:1005A00021F480540E94B5020895623021F48C56E3
:1005B0000E94B50208958C520E94B50208950E94CF
:1005C000A7029927089581E00E94B502089582E06C
:1005D0000E94B50208951F93182F0E94A702982F1A
:1005E0001A30A1F4843110F480E40CC080548431BA
:1005F00010F484E107C0892F84518C3210F484E513
:1006000001C080E080580E94B50204C061E0812FE3
:100610000E944F021F910895CF93DF93FC018081C8
:10062000882339F0EF010E94EB028981219688230B
:10063000D1F7DF91CF910895CF93DF93FC0184919F
:10064000882351F0EF0121960E94EB02FE012196D2
:10065000E4918E2FEE23C1F7DF91CF910895FF92A1
:100660000F931F93F82EA09AA19AA29AA49AA59AE2
:10067000A69AA79A80E999E30197F1F7AD9AAC9A07
:100680000E944B0285EF91E10197F1F70E944B0226
:100690000AE310E0C8010197F1F70E944B02C8017C
:1006A0000197F1F7AC980E944B02C8010197F1F74E
:1006B00088E20E94B50288E00E94B5020E94E3022F
:1006C00086E00E94B5028F2D0E94B5021F910F9106
:1006D000FF90089553E200000000000000000000B9
:1006E0005A95C9F70895AB98A39A58E700000000FF
:1006F00000000000000000000000000000000000FA
:100700000000000000005A9589F7A39853E200000A
:1007100000000000000000005A95C9F783B3992734
:1007200096958795969587959695879580959095BA
:100730008170907008951F93182F0E946A031123EF
:1007400081F0AB98A39A56E000005A95E9F7A39878
:1007500050E2000000000000000000005A95C9F7B8
:100760000FC0AB98A39A5EE10000000000000000FB
:1007700000005A95C9F7A39859E000005A95E9F787
:100780001F9108950E946A03AB98A39A56E0000057
:100790005A95E9F7A39858E000005A95E9F783B312
:1007A00099279695879596958795969587958170C3
:1007B000907008950F931F93182F00E0812F817080
:1007C0000E949B0316950F5F0830C1F71F910F9190
:1007D00008950F931F93CF93DF93C0E0D0E000E024
:1007E00010E0159507950E94C203811100682196BB
:1007F000C830D105B1F7802F9927DF91CF911F9194
:100800000F910895FF920F931F93182FFF2400E07C
:10081000F69410FF07C00E94C203882331F080E8DD
:10082000F82A03C080E00E949B030F5F083011F09C
:100830001695EECF8F2D99271F910F91FF90089558
:10084000EF92FF920F931F93CF93DF937B011616C6
:10085000170664F4EC0100E010E088810E940204B5
:1008600089930F5F1F4FE016F106B9F7DF91CF9123
:100870001F910F91FF90EF900895FF920F931F9398
:10088000CF93DF938C01F62E0E947303011511059F
:1008900021F48CEC0E94DA030FC085E50E94DA0394
:1008A000C0E0D0E0F801EC0FFD1F80810E94DA0368
:1008B0002196C830D105B1F78F2D0E94DA03DF9160
:1008C000CF911F910F91FF900895FC0180E09081DE
:1008D000892728E09CE880FB86950EF489272A95D5
:1008E000D1F79181892728E09CE880FB86950EF45A
:1008F00089272A95D1F799270895DB019C918927AB
:10090000E7EBF0E0E80FF11DE491EC9308958F928E
:100910009F92AF92BF92CF92DF92EF92FF920F938E
:100920001F93CF93DF93CDB7DEB721970FB6F8941F
:10093000DEBF0FBECDBF6C01142F19828091EB0179
:10094000882309F09AC0662359F00E947303882314
:1009500039F01092EC011092ED018FEF90E0AAC0F7
:10096000112321F08CEE0E94DA0303C080EF0E9475
:10097000DA030E946A030E946A030E946A03A0903D
:10098000ED01B090EC01FF24F3948824EE2401E003
:1009900099240E94C203182F110F0E94C203182B22
:1009A000133009F483C0112329F0812F8095182F6B
:1009B000117017C0FB1448F4F601EE0DF11D808193
:1009C000102F182331F011E004C010E0FB1409F4DB
:1009D00011E0112331F488E08F1508F44AC0AF2CE0
:1009E00048C0113039F4F601EE0DF11D8081802BE5
:1009F000808308C0F601EE0DF11D902F9095808147
:100A000089238083812F0E949B03F394000F61F45C
:100A1000F601EE0DF11DBE016F5F7F4F80810E94D8
:100A20007D049980E39401E0E7E0EE1508F0B1CF92
:100A3000A092ED01F0E4FF1518F0992079F51DC0A2
:100A40009920C9F48092EC011092EB01882019F4EE
:100A500081E08093EB01F60180818823C1F006C01C
:100A6000F6018081882311F48DEF01C081E0992780
:100A700021C08F2CBFCF8EEF01C080E01092EC011F
:100A80001092EB011092ED01813089F7E9CF1092BD
:100A9000EC011092EB011092ED01E2CF8EEF10927B
:100AA000EC011092EB011092ED01E1CFA092ED016B
:100AB0008DEF90E021960FB6F894DEBF0FBECDBF4C
:100AC000DF91CF911F910F91FF90EF90DF90CF902A
:100AD000BF90AF909F908F9008951092EC0110926C
:100AE000EB011092ED010E94870499270895CF939E
:100AF000DF930E947303813019F080E090E00EC014
:100B000083E30E94DA03C4E8D2E00E94E9038993F8
:100B100082E0CD38D807C9F781E090E0DF91CF912E
:100B200008950F931F93082F162F0E94730381308F
:100B300061F48CEC0E94DA038FE00E94DA03802FCC
:100B40000E94DA03812F0E94DA0356E000005A95D2
:100B5000E9F70E947303813059F48CEC0E94DA03A8
:100B60008AEA0E94DA03802F0E94DA030E94E903D6
:100B700056E000005A95E9F70E947303813049F46A
:100B80008CEC0E94DA0385E50E94DA0385EA0E9474
:100B9000DA0356E000005A95E9F71F910F91089586
:100BA000CF93DF93C8E7D2E085E892E01992C817A7
:100BB000D907E1F70E947303813089F48CEC0E941D
:100BC000DA0380EF0E94DA0380E00E94DA032D97B7
:100BD0000E94E903899382E0C538D807C9F7DF91FD
:100BE000CF9108951F920F920FB60F9211242F9359
:100BF0003F938F939F93EF93FF932BB13CB18091E1
:100C000030028F5F982F9F7180913102981711F4F5
:100C100082E009C0822F887190933002EEE0F2E00A
:100C2000E90FF11D308380933202FF91EF919F9184
:100C30008F913F912F910F900FBE0F901F9018959D
:100C40001F920F920FB60F9211248F939F93EF93E1
:100C5000FF9390912E0280912F02981769F0809156
:100C60002F028F5F8F7180932F02EEEEF1E0E80F7D
:100C7000F11D80818CB901C05598FF91EF919F9132
:100C80008F910F900FBE0F901F9018959C0110929E
:100C90002E0210922F0210923002109231029923EC
:100CA0001CF482E08BB93F77832F992780939000C3
:100CB00029B988E98AB986E08093950008959091D2
:100CC000300280913102981719F480E091E0089584
:100CD000809131028F5F8F7180933102EEE0F2E0FC
:100CE000E80FF11D2081809132029927982F8827E3
:100CF000820F911D0895282F80912E028F5F982FCB
:100D00009F7180912F029817E1F3EEEEF1E0E90F69
:100D1000F11D208390932E02559A0895CF93DF936F
:100D2000EC018881882331F021960E947B0688811E
:100D30008823D1F7DF91CF910895CF93DF93FC0102
:100D40008491882351F0EF0121960E947B06FE01D9
:100D50002196E4918E2FEE23C1F7DF91CF91089574
:100D60001F920F920FB60F9211242F933F938F93E0
:100D70009F93EF93FF9320919B0030919C00809173
:100D800075028F5F982F9F7180917602981711F4EA
:100D900082E009C0822F887190937502E3E5F2E04A
:100DA000E90FF11D308380937702FF91EF919F91BE
:100DB0008F913F912F910F900FBE0F901F9018951C
:100DC0001F920F920FB60F9211248F939F93EF9360
:100DD000FF939091730280917402981771F0809143
:100DE00074028F5F8F7180937402E3E3F2E0E80F87
:100DF000F11D808180939C0005C0EAE9F0E08081CC
:100E00008F7D8083FF91EF919F918F910F900FBE07
:100E10000F901F9018959C0110927302109274020B
:100E20001092750210927602992324F482E0809346
:100E30009B003F77832F99278093980020939900F8
:100E400088E980939A0086E080939D0008959091B0
:100E5000750280917602981719F480E091E0089568
:100E6000809176028F5F8F7180937602E3E5F2E0E6
:100E7000E80FF11D2081809177029927982F88270C
:100E8000820F911D0895282F809173028F5F982FF4
:100E90009F71809174029817E1F3E3E3F2E0E90FA8
:100EA000F11D208390937302EAE9F0E08081806273
:100EB00080830895CF93DF93EC018881882331F0FC
:100EC00021960E94430788818823D1F7DF91CF9133
:100ED0000895CF93DF93FC018491882351F0EF01B3
:100EE00021960E944307FE012196E4918E2FEE2366
:100EF000C1F7DF91CF910895FB019F01E894423043
:100F0000C4F04532B4F44A3029F497FB1EF49095AE
:100F100081959F4F642F77270E94AD07805D8A33AC
:100F20000CF0895D8193CB010097A1F716F45DE287
:100F300051931082C9010C949D07DC01FC01672FBD
:100F400071917723E1F7329704C07C916D937083A0
:100F50006291AE17BF07C8F30895AA1BBB1B51E1EE
:100F600007C0AA1FBB1FA617B70710F0A61BB70B19
:100F7000881F991F5A95A9F780959095BC01CD01BE
:040F80000895FFCF02
:100F8400456E7465722050696E3A2000436F6E6638
:100F940069726D20503A20002020203C2D414345A9
:100FA4005353204D454E552D3E00596F75722050B8
:100FB400696E3A20002D2D2D3E20507265737320EA
:100FC40020454E54203C2D2D2D00203C4472617749
:100FD40065722053656375726974793E2000312D02
:100FE40020416363657373204472617765723E20A8
:100FF40000322D2041646D696E2041636365737313
:1010040000537472696E672073746F72656420692B
:101014006E205352414D0A00416363657373204748
:1010240072616E7465640041303A30200041303A98
:1010340031200041313A30200041313A3120004121
:10104400323A30200041323A31200041333A3020E4
:101054000041333A3120006331343730323538655A
:081064003336392E203C3E001A
:00000001FF
